:020000040040BA
:10000000E8340020910740008D0740008D07400034
:100010008D0740008D0740008D0740000000000064
:100020000000000000000000000000008D074000FC
:100030008D074000000000008D0740008D07400044
:100040008D0740008D0740008D0740008D07400060
:100050008D0740008D0740008D0740008D07400050
:100060008D0740008D074000000000008D03400018
:10007000A1034000B50340008D0740008D074000FC
:1000800000000000000000008D0740008D074000C8
:100090008D0740008D0740008D0740008D07400010
:1000A0008D0740008D0740008D0740008D07400000
:1000B0008D0740008D0740008D0740008D074000F0
:1000C0008D0740008D0740008D07400008B50548AA
:1000D000054B1B1A062B00D808BD044B002BFBD088
:1000E0009847F9E7A00B4000A30B40000000000078
:1000F00008B50748074B1B1A9B1003EBD373591025
:1001000000D108BD044A002AFBD09047F9E700BFA0
:10011000A00B4000A00B40000000000010B5064CF2
:10012000237843B9FFF7D2FF044B13B10448AFF370
:1001300000800123237010BD38040020000000005F
:10014000A00B400008B5084B1BB108480849AFF3A5
:1001500000800848036813B1074B03B19847BDE816
:100160000840FFF7C5BF00BF00000000A00B400023
:100170003C040020A00B400000000000032803D82E
:10018000DFE800F00A040608002306E0102304E07C
:10019000562302E0572300E054235A0902F50012C7
:1001A00002F20772520231B903F01F03012101FA72
:1001B00003F31363704703F01F03012101FA03F3F4
:1001C0005363704770B582B00446084D41690269B7
:1001D000C368002000902846054EB0472846A16815
:1001E00062682368034CA04702B070BD60140E40E3
:1001F000D1064000C5054000F0B585B0044604AD09
:10020000002345F8043D0A4E304604F10801221D42
:100210002346084FB8470095304604F1140104F115
:10022000100204F10C03044CA04705B0F0BD00BF60
:1002300060140E40650540005906400038B5174B64
:1002400098470B20164CA0470C20A0470D20A04734
:100250000020144B9847144CA0470028FCD01348AA
:100260000021134B9847134B4FF480151D61C3F8C1
:10027000A05011484FF480340461C0F8A0404FF4FE
:1002800080011961C3F8A0104FF400021A61C3F88D
:10029000A0201D63046319631A6338BDBD024000CA
:1002A000F50440002D0440005104400060140E404D
:1002B0004D05400000120E40000E0E4010B50D48D6
:1002C0000D4B984700203E210C4B98470C4CA04703
:1002D0000028FCD00B4B98470B4A0C4B9A620C4CF5
:1002E000A0470028FCD010200A4B98470A4B98479B
:1002F00010BD00BF000E27075909400071044000DF
:10030000C5044000D5044000013F132000040E4006
:10031000E5044000C903400045084000C06C704738
:10032000806C70472DE9F04180460E46124B98478D
:1003300005464046114B9847054012D0104C54F8E2
:100340000C3CB3420AD154F8081C294206D0236859
:100350003046984754F8083C25EA03051034002D30
:10036000EDD1084B1B6823B1074B1B680BB140460E
:100370009847BDE8F08100BF1D0340002103400005
:1003800064040020C80400205404002008B502487A
:100390000B21024B984708BD000E0E40250340007C
:1003A00008B502480C21024B984708BD00100E40CA
:1003B0002503400008B502480D21024B984708BDAF
:1003C00000120E4025034000174B1A6B22F07002FA
:1003D000104318639B6E13F0080F09D14FF40063AC
:1003E000114901E0013B19D08A6E12F0080FF9D0D3
:1003F0000D4B1A6B22F0030242F002021A63986E50
:1004000010F008000CD14FF40063074901E0013BF4
:1004100008D08A6E12F0080FF9D07047012070479B
:10042000002070470120704700040E40012806D1CB
:10043000054A936843F0254343F480139360034ACD
:10044000014B1A60704700BF10140E40080000A551
:10045000054B5B6913F0800F04D0044B986EC0F31A
:10046000C01070470020704710140E4000040E406A
:1004700038B111490B6A114A1A40114B13430B62F0
:1004800070470D4A136A23F45C1323F0030343F40B
:100490005C1343F00103090289B20B431362936EAC
:1004A00013F0010FFBD0044A136A43F09B7343F42B
:1004B00080331362704700BF00040E40FCFFC8FE8B
:1004C00002003701024B986E00F48030704700BF85
:1004D00000040E404FF00052014B9A62704700BF7B
:1004E00000040E40024B986E00F00200704700BFFF
:1004F00000040E40222820D81F280DD8124B9A69DC
:10050000012383401A40934219D0012303FA00F0DB
:100510000D4B1861002070470B4BD3F80821203891
:10052000012383401A4093420BD0012303FA00F0C9
:10053000054BC3F8000100207047012070470020E0
:1005400070470020704700BF00040E4021B143688F
:1005500043F0010343607047436823F001034360A5
:10056000704700BF30B484688568AC4203D08468AB
:100570008568A542FBD169B104F47C10050D05EB3B
:100580008505C0F3034000EB450014F4800F18BF4D
:100590000C3008604AB104F4FE41080B00EB800007
:1005A000C1F3032101EB4001116043B1C4F3021216
:1005B00002EB820204F00F0404EB42021A6030BC2A
:1005C000704700BFF0B4446814F0010F05D00C2947
:1005D00005D90C394FF4800702E0002700E000271E
:1005E0001C4CA4FB0356F60806EB8605A3EB45035B
:1005F00043EA0616A4FB0235ED0846EA053605EB8C
:100600008505A2EB450246EA02223A43A4FB0153C8
:10061000DB0842EA035203EB8303A1EB430142EA06
:100620000141036843F001030360836913F0010F84
:10063000FBD00123C3618160036823F001030360E1
:10064000C36943F00403C361C06A00F00100F0BC59
:10065000704700BFCDCCCCCCF0B4049EC468C56854
:10066000AC4203D0C468C568A542FBD1A1B104F473
:100670007F40050B05EB8505C0F3032000EB450526
:10068000C4F3021000EB800004F00F0707EB4000FA
:10069000642707FB005008604AB104F4F811080D04
:1006A00085002844C1F3034101EB400111604BB1C7
:1006B00004F07C52110F01EB8101C2F3036202EBE3
:1006C00041021A6016B1C4F342543460F0BC704762
:1006D00070B42B4CA4FB0365ED08039E760546EA37
:1006E000057605EB8505A3EB450546EA0565A4FB04
:1006F0000263DB0845EA035503EB8303A2EB4302E5
:1007000045EA02431F4AA2FB0152920943EA021240
:100710001D4BA3FB01635B09A4FB0365ED0805EB1F
:100720008505A3EB450342EA0305A4FB0123DB088F
:1007300003EB8302A1EB420145EA0121A4FB035430
:10074000E40804EB8404A3EB440341EA03310368A7
:1007500043F002030360836913F0010FFBD0012310
:10076000C361C160036823F002030360C36943F0FF
:100770000403C361C06A00F0020070BC704700BF90
:10078000CDCCCCCCD34D62101F85EB51FEE700BF22
:1007900010B5204B204A9A4212D9204B1D4A9A424A
:1007A0001FD2131D1E4CE41A24F00304043400234A
:1007B000104619495A581A500433A342FAD110E08E
:1007C000144B154A9A420CD2144A1946D31A1548AA
:1007D000184433B113469C1A245843F8044D9942E7
:1007E000F9D100BF104B114A9A420BD2131F104986
:1007F000C91A21F003011A1D1144002243F8042FE5
:100800008B42FBD10B4B0C4A9A600C4B98470C4B1C
:100810009847FEE700000020A00B400038040020AD
:100820003B0400209C0B4000E4040020380400201E
:10083000DF04002000ED00E0000040007D0A4000E1
:10084000ED0940003D4B1B6B03F00303032B5DD808
:10085000DFE803F0020E2B2B394B5B6913F0800F9E
:1008600014BF4FF400424FF4FA42364B1A604DE089
:10087000324B1B6A13F0807F03D0334A314B1A602E
:1008800044E0324A2F4B1A602C4B1B6A03F0700372
:10089000102B02D0202B04D038E02D4A294B1A60AF
:1008A00034E0294A274B1A6030E0244B1B6A13F0CE
:1008B000807F03D0244A234B1A6012E0234A214B45
:1008C0001A601E4B1B6A03F07003102B02D0202B02
:1008D00004D006E01E4A1B4B1A6002E01A4A194B6C
:1008E0001A60164B1B6B03F00303022B134B07BF5D
:1008F000986A996AD86AD96A124BC0F30A401A6892
:1009000000FB0222C9B2B2FBF1F21A600B4B1B6B67
:1009100003F07003702B07D10A4B1A680D49A1FB35
:10092000020252081A607047044B196B054BC1F361
:1009300002111A68CA401A60704700BF00040E40D6
:1009400010140E4000000020001BB70000093D00FD
:1009500000127A00ABAAAAAA1A4B984207D84FF005
:100960008063194A136002F5007213607047174BD9
:10097000984206D8164B144A136002F500721360B1
:100980007047144B984206D8134B0F4A136002F578
:10099000007213607047114B984206D8104B0A4AF8
:1009A000136002F50072136070470E4B984294BFBB
:1009B0004FF004230C4B044A136002F500721360DD
:1009C000704700BFFF2C3101000A0E40FF59620240
:1009D00000010004FF86930300020004FFB3C40477
:1009E00000030004FFE0F5050005000408B5104B06
:1009F0009847104800230360052343601123836058
:100A0000C3600923036140F2DE7343610A4B9847D8
:100A1000084C0A4E0A4D2046B047236813F0010FD8
:100A20004FF001000CBF01460021A847F3E700BFCB
:100A30003D024000CC040020C5014000F901400007
:100A40007D014000014600200246034600F03CB80C
:100A500038B5084D084C641BA41005EB840524B17F
:100A600055F8043D013C9847F9E7BDE8384000F0EF
:100A70008FB800BF9C0B4000A00B400070B50E4B20
:100A80000E4DED1AAD1000241E46AC4204D056F8AF
:100A9000242090470134F8E700F070F8084D094B26
:100AA000ED1AAD1000241E46AC4204D056F82420A6
:100AB00090470134F8E770BD880B4000880B400078
:100AC000900B4000880B40002DE9F8439846224BDC
:100AD0001C680646D4F848010F46914618B904F53B
:100AE000A670C4F8480143681F2B16DD1B4B1BB9C9
:100AF0004FF0FF30BDE8F8834FF4C870AFF30080CB
:100B00000028F5D0D4F84811016000254560C4F8EC
:100B10004801C0F88851C0F88C5144689EB100EB80
:100B200084050122C5F88890D0F88811A2401143AD
:100B3000022EC0F88811C5F8088104D1D0F88C3194
:100B40001A43C0F88C21631C0234436040F82470BF
:100B50000020BDE8F88300BF740B400000000000D7
:100B6000024B13B10248FFF76DBF70470000000051
:100B7000510A40001000002043000000F8B500BFFB
:100B8000F8BC08BC9E467047610B40004501400020
:100B9000F8B500BFF8BC08BC9E4670471D01400078
:100BA00000093D00000000001000002000000000CF
:100BB00000000000FC02002064030020CC030020A1
:100BC0000000000000000000000000000000000025
:100BD0000000000000000000000000000000000015
:100BE00000000000780B4000000000000000000042
:100BF00000000000000000000000000000000000F5
:100C000000000000000000000000000000000000E4
:100C100000000000000000000000000000000000D4
:100C200000000000000000000000000000000000C4
:100C300000000000000000000000000000000000B4
:100C400000000000000000000000000000000000A4
:100C50000000000000000000010000000000000093
:100C60000E33CDAB34126DE6ECDE05000B00000058
:100C70000000000000000000000000000000000074
:100C80000000000000000000000000000000000064
:100C90000000000000000000000000000000000054
:100CA0000000000000000000000000000000000044
:04000005004007911F
:00000001FF
